{"abi":[{"type":"constructor","inputs":[{"name":"_admin","type":"address","internalType":"address"}],"stateMutability":"nonpayable"},{"type":"receive","stateMutability":"payable"},{"type":"function","name":"admin","inputs":[],"outputs":[{"name":"","type":"address","internalType":"address"}],"stateMutability":"view"},{"type":"function","name":"cycleId","inputs":[],"outputs":[{"name":"","type":"uint256","internalType":"uint256"}],"stateMutability":"view"},{"type":"function","name":"deactivateProject","inputs":[{"name":"projectId","type":"uint256","internalType":"uint256"}],"outputs":[],"stateMutability":"nonpayable"},{"type":"function","name":"distributeMatching","inputs":[],"outputs":[],"stateMutability":"nonpayable"},{"type":"function","name":"donate","inputs":[{"name":"projectId","type":"uint256","internalType":"uint256"}],"outputs":[],"stateMutability":"payable"},{"type":"function","name":"donorAmounts","inputs":[{"name":"","type":"uint256","internalType":"uint256"},{"name":"","type":"address","internalType":"address"}],"outputs":[{"name":"","type":"uint256","internalType":"uint256"}],"stateMutability":"view"},{"type":"function","name":"estimateMatching","inputs":[],"outputs":[{"name":"ids","type":"uint256[]","internalType":"uint256[]"},{"name":"amounts","type":"uint256[]","internalType":"uint256[]"}],"stateMutability":"view"},{"type":"function","name":"fundMatchingPool","inputs":[],"outputs":[],"stateMutability":"payable"},{"type":"function","name":"getAllProjectIds","inputs":[],"outputs":[{"name":"ids","type":"uint256[]","internalType":"uint256[]"}],"stateMutability":"view"},{"type":"function","name":"getDonors","inputs":[{"name":"projectId","type":"uint256","internalType":"uint256"}],"outputs":[{"name":"","type":"address[]","internalType":"address[]"}],"stateMutability":"view"},{"type":"function","name":"matchingPool","inputs":[],"outputs":[{"name":"","type":"uint256","internalType":"uint256"}],"stateMutability":"view"},{"type":"function","name":"projectCount","inputs":[],"outputs":[{"name":"","type":"uint256","internalType":"uint256"}],"stateMutability":"view"},{"type":"function","name":"projects","inputs":[{"name":"","type":"uint256","internalType":"uint256"}],"outputs":[{"name":"id","type":"uint256","internalType":"uint256"},{"name":"name","type":"string","internalType":"string"},{"name":"description","type":"string","internalType":"string"},{"name":"imageURI","type":"string","internalType":"string"},{"name":"recipient","type":"address","internalType":"address payable"},{"name":"active","type":"bool","internalType":"bool"},{"name":"totalDonations","type":"uint256","internalType":"uint256"},{"name":"donorCount","type":"uint256","internalType":"uint256"}],"stateMutability":"view"},{"type":"function","name":"registerProject","inputs":[{"name":"name","type":"string","internalType":"string"},{"name":"description","type":"string","internalType":"string"},{"name":"imageURI","type":"string","internalType":"string"}],"outputs":[{"name":"projectId","type":"uint256","internalType":"uint256"}],"stateMutability":"nonpayable"},{"type":"event","name":"Donation","inputs":[{"name":"donor","type":"address","indexed":true,"internalType":"address"},{"name":"projectId","type":"uint256","indexed":true,"internalType":"uint256"},{"name":"amount","type":"uint256","indexed":false,"internalType":"uint256"},{"name":"cycleId","type":"uint256","indexed":false,"internalType":"uint256"}],"anonymous":false},{"type":"event","name":"MatchingAllocated","inputs":[{"name":"cycleId","type":"uint256","indexed":true,"internalType":"uint256"},{"name":"projectId","type":"uint256","indexed":true,"internalType":"uint256"},{"name":"amount","type":"uint256","indexed":false,"internalType":"uint256"}],"anonymous":false},{"type":"event","name":"MatchingDistributed","inputs":[{"name":"cycleId","type":"uint256","indexed":true,"internalType":"uint256"},{"name":"totalPool","type":"uint256","indexed":false,"internalType":"uint256"},{"name":"projectCount","type":"uint256","indexed":false,"internalType":"uint256"}],"anonymous":false},{"type":"event","name":"MatchingPoolFunded","inputs":[{"name":"funder","type":"address","indexed":true,"internalType":"address"},{"name":"amount","type":"uint256","indexed":false,"internalType":"uint256"}],"anonymous":false},{"type":"event","name":"ProjectDeactivated","inputs":[{"name":"projectId","type":"uint256","indexed":true,"internalType":"uint256"}],"anonymous":false},{"type":"event","name":"ProjectRegistered","inputs":[{"name":"projectId","type":"uint256","indexed":true,"internalType":"uint256"},{"name":"recipient","type":"address","indexed":true,"internalType":"address"},{"name":"name","type":"string","indexed":false,"internalType":"string"},{"name":"imageURI","type":"string","indexed":false,"internalType":"string"}],"anonymous":false},{"type":"error","name":"EmptyName","inputs":[]},{"type":"error","name":"EmptyPool","inputs":[]},{"type":"error","name":"InvalidProject","inputs":[]},{"type":"error","name":"NoProjects","inputs":[]},{"type":"error","name":"NotAdmin","inputs":[]},{"type":"error","name":"ProjectInactive","inputs":[]},{"type":"error","name":"ZeroAdmin","inputs":[]},{"type":"error","name":"ZeroDonation","inputs":[]}],"bytecode":{"object":"0x60a060405234801561001057600080fd5b50604051611a80380380611a8083398101604081905261002f9161006c565b6001600160a01b03811661005657604051633944ed8760e11b815260040160405180910390fd5b6001600160a01b0316608052600160025561009c565b60006020828403121561007e57600080fd5b81516001600160a01b038116811461009557600080fd5b9392505050565b6080516119ad6100d3600039600081816102f40152818161058e015281816109d701528181610bdd0152610da201526119ad6000f3fe6080604052600436106100e15760003560e01c806365c0f8701161007f578063df9a6c2f11610059578063df9a6c2f146102a7578063e6d52cce146102c7578063f14faf6f146102cf578063f851a440146102e257600080fd5b806365c0f87014610244578063aacef18b14610259578063ccc0bde41461026f57600080fd5b8063436e6958116100bb578063436e6958146101c75780634558b9d1146101e95780634ac647661461020c57806362e0accb1461022e57600080fd5b8063107046bd14610139578063295165111461017657806336fbad26146101a357600080fd5b366101345734600160008282546100f89190611472565b909155505060405134815233907f3bb089bb6da40116c6a3c675cfe3396720869b0637961b61b262a415c880160f9060200160405180910390a2005b600080fd5b34801561014557600080fd5b5061015961015436600461148b565b61032e565b60405161016d9897969594939291906114ea565b60405180910390f35b34801561018257600080fd5b5061019661019136600461148b565b610517565b60405161016d919061155d565b3480156101af57600080fd5b506101b960005481565b60405190815260200161016d565b3480156101d357600080fd5b506101e76101e236600461148b565b610583565b005b3480156101f557600080fd5b506101fe61063e565b60405161016d9291906115e5565b34801561021857600080fd5b50610221610938565b60405161016d9190611613565b34801561023a57600080fd5b506101b960025481565b34801561025057600080fd5b506101e76109cc565b34801561026557600080fd5b506101b960015481565b34801561027b57600080fd5b506101b961028a36600461162d565b600460209081526000928352604080842090915290825290205481565b3480156102b357600080fd5b506101b96102c23660046116b2565b610e42565b6101e7611045565b6101e76102dd36600461148b565b6110b4565b3480156102ee57600080fd5b506103167f000000000000000000000000000000000000000000000000000000000000000081565b6040516001600160a01b03909116815260200161016d565b600360205260009081526040902080546001820180549192916103509061174c565b80601f016020809104026020016040519081016040528092919081815260200182805461037c9061174c565b80156103c95780601f1061039e576101008083540402835291602001916103c9565b820191906000526020600020905b8154815290600101906020018083116103ac57829003601f168201915b5050505050908060020180546103de9061174c565b80601f016020809104026020016040519081016040528092919081815260200182805461040a9061174c565b80156104575780601f1061042c57610100808354040283529160200191610457565b820191906000526020600020905b81548152906001019060200180831161043a57829003601f168201915b50505050509080600301805461046c9061174c565b80601f01602080910402602001604051908101604052809291908181526020018280546104989061174c565b80156104e55780601f106104ba576101008083540402835291602001916104e5565b820191906000526020600020905b8154815290600101906020018083116104c857829003601f168201915b505050506004830154600584015460069094015492936001600160a01b03821693600160a01b90920460ff1692509088565b60008181526005602090815260409182902080548351818402810184019094528084526060939283018282801561057757602002820191906000526020600020905b81546001600160a01b03168152600190910190602001808311610559575b50505050509050919050565b336001600160a01b037f000000000000000000000000000000000000000000000000000000000000000016146105cc57604051637bfa4b9f60e01b815260040160405180910390fd5b8015806105da575060005481115b156105f857604051632fa2a9bf60e21b815260040160405180910390fd5b600081815260036020526040808220600401805460ff60a01b191690555182917f32619b1c1bac9b073234f8ace80ba5659d4a461276966921ca62cc24a32c7ff391a250565b60608060005467ffffffffffffffff81111561065c5761065c611780565b604051908082528060200260200182016040528015610685578160200160208202803683370190505b50915060005467ffffffffffffffff8111156106a3576106a3611780565b6040519080825280602002602001820160405280156106cc578160200160208202803683370190505b509050600154600014806106e05750600054155b156106e9579091565b6000805467ffffffffffffffff81111561070557610705611780565b60405190808252806020026020018201604052801561072e578160200160208202803683370190505b509050600060015b600054811161087757808561074c600183611796565b8151811061075c5761075c6117a9565b602090810291909101810191909152600082815260039091526040902060040154600160a01b900460ff161561086557600081815260056020526040812090805b825481101561082d576000848152600460205260408120845482908690859081106107ca576107ca6117a9565b60009182526020808320909101546001600160a01b031683528201929092526040019020549050801561081a5761080d61080882633b9aca006117bf565b611292565b6108179084611472565b92505b5080610825816117d6565b91505061079d565b50808561083b600186611796565b8151811061084b5761084b6117a9565b60209081029190910101526108608185611472565b935050505b8061086f816117d6565b915050610736565b50806000036108865750509091565b60018054905b6000548111610930576000846108a3600184611796565b815181106108b3576108b36117a9565b60200260200101519050806000036108cb575061091e565b6108d584806117bf565b816108e081866117bf565b6108ea91906117bf565b6108f491906117ef565b86610900600185611796565b81518110610910576109106117a9565b602002602001018181525050505b80610928816117d6565b91505061088c565b505050509091565b606060005467ffffffffffffffff81111561095557610955611780565b60405190808252806020026020018201604052801561097e578160200160208202803683370190505b50905060005b6000548110156109c857610999816001611472565b8282815181106109ab576109ab6117a9565b6020908102919091010152806109c0816117d6565b915050610984565b5090565b336001600160a01b037f00000000000000000000000000000000000000000000000000000000000000001614610a1557604051637bfa4b9f60e01b815260040160405180910390fd5b600154600003610a3857604051631107712560e01b815260040160405180910390fd5b600054600003610a5b5760405163a1f5ab3360e01b815260040160405180910390fd5b6001805460025460009283905582549192909167ffffffffffffffff811115610a8657610a86611780565b604051908082528060200260200182016040528015610aaf578160200160208202803683370190505b509050600060015b6000548111610bc757600081815260036020526040902060040154600160a01b900460ff1615610bb557600081815260056020526040812090805b8254811015610b7d57600084815260046020526040812084548290869085908110610b1f57610b1f6117a9565b60009182526020808320909101546001600160a01b0316835282019290925260400190205490508015610b6a57610b5d61080882633b9aca006117bf565b610b679084611472565b92505b5080610b75816117d6565b915050610af2565b508085610b8b600186611796565b81518110610b9b57610b9b6117a9565b6020908102919091010152610bb08185611472565b935050505b80610bbf816117d6565b915050610ab7565b5080600003610c35576040516001600160a01b037f0000000000000000000000000000000000000000000000000000000000000000169085156108fc029086906000818181858888f19350505050158015610c26573d6000803e3d6000fd5b50610c2f6112fc565b50505050565b600060015b6000548111610d8057600084610c51600184611796565b81518110610c6157610c616117a9565b602002602001015190508060001480610c935750600082815260036020526040902060040154600160a01b900460ff16155b15610c9e5750610d6e565b6000610caa82806117bf565b90506000610cb886806117bf565b9050600081610cc7848c6117bf565b610cd191906117ef565b90508015610d6957610ce38187611472565b6000868152600360205260408082206004015490519298506001600160a01b03169183156108fc0291849190818181858888f19350505050158015610d2c573d6000803e3d6000fd5b5084897fba9f6205458e4f4e04479f9c2b5013a4d1cc7c31d94b19e66ae6d1ad4efcd7f083604051610d6091815260200190565b60405180910390a35b505050505b80610d78816117d6565b915050610c3a565b506000610d8d8287611796565b90508015610ded576040516001600160a01b037f0000000000000000000000000000000000000000000000000000000000000000169082156108fc029083906000818181858888f19350505050158015610deb573d6000803e3d6000fd5b505b847f2eb39bf03704f24164325fd541a916977b27212321d2e79d93a4da0cd778320587600054604051610e2a929190918252602082015260400190565b60405180910390a2610e3a6112fc565b505050505050565b6000858103610e6457604051632ef1310560e01b815260040160405180910390fd5b6000808154610e72906117d6565b919050819055905060405180610100016040528082815260200188888080601f016020809104026020016040519081016040528093929190818152602001838380828437600092019190915250505090825250604080516020601f890181900481028201810190925287815291810191908890889081908401838280828437600092019190915250505090825250604080516020601f870181900481028201810190925285815291810191908690869081908401838280828437600092018290525093855250503360208085019190915260016040808601829052606086018590526080909501849052868452600382529390922084518155918401519192830191610f7f91508261185c565b5060408201516002820190610f94908261185c565b5060608201516003820190610fa9908261185c565b50608082015160048201805460a08501511515600160a01b026001600160a81b03199091166001600160a01b039093169290921791909117905560c0820151600582015560e090910151600690910155604051339082907f182a3c36d70101c00c1251172cafd87f69e7e51caa24ab27ee82e181d0b5c34790611033908b908b9089908990611945565b60405180910390a39695505050505050565b3460000361106657604051636370392160e11b815260040160405180910390fd5b34600160008282546110789190611472565b909155505060405134815233907f3bb089bb6da40116c6a3c675cfe3396720869b0637961b61b262a415c880160f9060200160405180910390a2565b346000036110d557604051636370392160e11b815260040160405180910390fd5b8015806110e3575060005481115b1561110157604051632fa2a9bf60e21b815260040160405180910390fd5b600081815260036020526040902060040154600160a01b900460ff1661113a576040516301c1a59160e11b815260040160405180910390fd5b6000818152600360209081526040808320600683528184203385529092529091205460ff166111c857600082815260066020818152604080842033808652908352818520805460ff19166001908117909155878652600584529185208054928301815585529184200180546001600160a01b031916909117905582018054916111c2836117d6565b91905055505b6000828152600460209081526040808320338452909152812080543492906111f1908490611472565b925050819055503481600501600082825461120c9190611472565b909155505060048101546040516001600160a01b03909116903480156108fc02916000818181858888f1935050505015801561124c573d6000803e3d6000fd5b50600254604080513481526020810192909252839133917fc7527093715c45cbbf2017cf0ce4a94e87874481265cd95291e08bf017f53bf1910160405180910390a35050565b6000816000036112a457506000919050565b600060026112b3846001611472565b6112bd91906117ef565b90508291505b818110156112f6579050806002816112db81866117ef565b6112e59190611472565b6112ef91906117ef565b90506112c3565b50919050565b6002805490600061130c836117d6565b90915550600190505b600054811161142b576000818152600560205260408120905b81548110156113e75760046000848152602001908152602001600020600083838154811061135e5761135e6117a9565b60009182526020808320909101546001600160a01b0316835282810193909352604091820181208190558581526006909252812083549091908490849081106113a9576113a96117a9565b60009182526020808320909101546001600160a01b031683528201929092526040019020805460ff19169055806113df816117d6565b91505061132e565b5060008281526005602052604081206113ff9161142e565b506000818152600360205260408120600581018290556006015580611423816117d6565b915050611315565b50565b508054600082559060005260206000209081019061142b91905b808211156109c85760008155600101611448565b634e487b7160e01b600052601160045260246000fd5b808201808211156114855761148561145c565b92915050565b60006020828403121561149d57600080fd5b5035919050565b6000815180845260005b818110156114ca576020818501810151868301820152016114ae565b506000602082860101526020601f19601f83011685010191505092915050565b60006101008a83528060208401526115048184018b6114a4565b90508281036040840152611518818a6114a4565b9050828103606084015261152c81896114a4565b6001600160a01b03979097166080840152505092151560a084015260c083019190915260e090910152949350505050565b6020808252825182820181905260009190848201906040850190845b8181101561159e5783516001600160a01b031683529284019291840191600101611579565b50909695505050505050565b600081518084526020808501945080840160005b838110156115da578151875295820195908201906001016115be565b509495945050505050565b6040815260006115f860408301856115aa565b828103602084015261160a81856115aa565b95945050505050565b60208152600061162660208301846115aa565b9392505050565b6000806040838503121561164057600080fd5b8235915060208301356001600160a01b038116811461165e57600080fd5b809150509250929050565b60008083601f84011261167b57600080fd5b50813567ffffffffffffffff81111561169357600080fd5b6020830191508360208285010111156116ab57600080fd5b9250929050565b600080600080600080606087890312156116cb57600080fd5b863567ffffffffffffffff808211156116e357600080fd5b6116ef8a838b01611669565b9098509650602089013591508082111561170857600080fd5b6117148a838b01611669565b9096509450604089013591508082111561172d57600080fd5b5061173a89828a01611669565b979a9699509497509295939492505050565b600181811c9082168061176057607f821691505b6020821081036112f657634e487b7160e01b600052602260045260246000fd5b634e487b7160e01b600052604160045260246000fd5b818103818111156114855761148561145c565b634e487b7160e01b600052603260045260246000fd5b80820281158282048414176114855761148561145c565b6000600182016117e8576117e861145c565b5060010190565b60008261180c57634e487b7160e01b600052601260045260246000fd5b500490565b601f82111561185757600081815260208120601f850160051c810160208610156118385750805b601f850160051c820191505b81811015610e3a57828155600101611844565b505050565b815167ffffffffffffffff81111561187657611876611780565b61188a81611884845461174c565b84611811565b602080601f8311600181146118bf57600084156118a75750858301515b600019600386901b1c1916600185901b178555610e3a565b600085815260208120601f198616915b828110156118ee578886015182559484019460019091019084016118cf565b508582101561190c5787850151600019600388901b60f8161c191681555b5050505050600190811b01905550565b81835281816020850137506000828201602090810191909152601f909101601f19169091010190565b60408152600061195960408301868861191c565b828103602084015261196c81858761191c565b97965050505050505056fea26469706673582212201ac127a72a18f4b773e239666f950d2e4dea00a73d00b0a4ab21def66754392064736f6c63430008140033","linkReferences":{}},"methodIdentifiers":{"admin()":"f851a440","cycleId()":"62e0accb","deactivateProject(uint256)":"436e6958","distributeMatching()":"65c0f870","donate(uint256)":"f14faf6f","donorAmounts(uint256,address)":"ccc0bde4","estimateMatching()":"4558b9d1","fundMatchingPool()":"e6d52cce","getAllProjectIds()":"4ac64766","getDonors(uint256)":"29516511","matchingPool()":"aacef18b","projectCount()":"36fbad26","projects(uint256)":"107046bd","registerProject(string,string,string)":"df9a6c2f"},"id":21}